:020000040000FA
:100000000C9462000C948A000C948A000C948A0070
:100010000C948A000C948A000C948A000C948A0038
:100020000C948A000C948A000C948A000C948A0028
:100030000C948A000C948A000C948A000C948A0018
:100040000C9433040C948A000C9401040C94DB038C
:100050000C948A000C948A000C948A000C948A00F8
:100060000C948A000C948A000000000024002700F1
:100070002A0000000000250028002B0000000008D6
:10008000000201000003040700000000000000005F
:1000900000000000230026002900040404040404D6
:1000A0000404020202020202030303030303010227
:1000B00004081020408001020408102001020408F6
:1000C0001020BD0611241FBECFEFD8E0DEBFCDBF8C
:1000D00011E0A0E0B1E0E0EAF2E102C005900D928B
:1000E000AE34B107D9F721E0AEE4B1E001C01D9212
:1000F000AB3FB207E1F710E0C2E6D0E004C02197C1
:10010000FE010E944809C136D107C9F70E94C20406
:100110000C944E090C940000AF92BF92CF92DF92E4
:10012000EF92FF920F931F93CF93DF936C017B01AC
:100130008B01040F151FEB015E01AE18BF08C0173D
:10014000D10759F06991D601ED91FC910190F081B0
:10015000E02DC6010995892B79F7C501DF91CF9173
:100160001F910F91FF90EF90DF90CF90BF90AF90D5
:100170000895FC01538D448D252F30E0842F90E0AD
:10018000821B930B541710F0CF9608950197089592
:10019000FC01918D828D981761F0A28DAE0FBF2F5B
:1001A000B11D5D968C91928D9F5F9F73928F90E0B1
:1001B00008958FEF9FEF0895FC01918D828D981720
:1001C00031F0828DE80FF11D858D90E008958FEF5D
:1001D0009FEF0895FC01918D228D892F90E0805C26
:1001E0009F4F821B91098F73992708958EE591E0A7
:1001F0000E94EA0021E0892B09F420E0822F089573
:1002000080E090E0892B29F00E94F60081110C9487
:1002100000000895FC01A48DA80FB92FB11DA35AA9
:10022000BF4F2C91848D90E001968F739927848F16
:10023000A689B7892C93A089B1898C918370806439
:100240008C93938D848D981306C00288F389E02DDA
:1002500080818F7D80830895EF92FF920F931F938B
:10026000CF93DF93EC0181E0888F9B8D8C8D981369
:100270001AC0E889F989808185FF15C09FB7F89475
:10028000EE89FF896083E889F989808183708064C1
:1002900080839FBF81E090E0DF91CF911F910F910C
:1002A000FF90EF900895F62E0B8D10E00F5F1F4F1B
:1002B0000F731127E02E8C8D8E110CC00FB607FC2A
:1002C000FACFE889F989808185FFF5CFCE010E94B8
:1002D0000A01F1CFEB8DEC0FFD2FF11DE35AFF4F1B
:1002E000F0829FB7F8940B8FEA89FB898081806246
:1002F000CFCFCF93DF93EC01888D8823B9F0AA8903
:10030000BB89E889F9898C9185FD03C0808186FDD0
:100310000DC00FB607FCF7CF8C9185FFF2CF80811F
:1003200085FFEDCFCE010E940A01E9CFDF91CF9189
:100330000895833081F028F4813099F08230A9F05B
:1003400008958730A9F08830C9F08430B1F48091E5
:1003500080008F7D03C0809180008F778093800024
:10036000089584B58F7784BD089584B58F7DFBCFC4
:100370008091B0008F778093B00008958091B00095
:100380008F7DF9CFCF93DF93282F30E0F901E45828
:10039000FF4F8491F901E255FF4FD491F901E656E0
:1003A000FF4FC491CC23A1F081110E949901EC2F41
:1003B000F0E0EE0FFF1FE057FF4FA591B491EC91D5
:1003C000ED2381E090E009F480E0DF91CF91089582
:1003D00080E090E0FACF1F93CF93DF93282F30E097
:1003E000F901E458FF4F8491F901E255FF4FD49190
:1003F000F901E656FF4FC491CC23A9F0162F8111C5
:100400000E949901EC2FF0E0EE0FFF1FEE58FF4F16
:10041000A591B4918FB7F894EC91111108C0D095C3
:10042000DE23DC938FBFDF91CF911F910895DE2BE8
:10043000F8CFCF93DF9390E0FC01E255FF4F24917A
:1004400086569F4FFC0184918823D1F090E0880F5D
:10045000991FFC01E859FF4FA591B491FC01EE589A
:10046000FF4FC591D49161110EC09FB7F8948C9144
:10047000E22FE0958E238C932881E223E8839FBFAF
:10048000DF91CF9108958FB7F894EC91E22BEC9324
:100490008FBFF6CFE82FF0E0E458FF4FE491E33050
:1004A00011F138F4E130A9F0E230C1F061E00C94D0
:1004B000EB01E73011F1E83041F1E430B9F7809118
:1004C000800080628093800070938B0060938A002C
:1004D000089584B5806884BD67BD089584B5806241
:1004E00084BD68BD089580918000806880938000FD
:1004F000709389006093880008958091B0008068AF
:100500008093B0006093B30008958091B000806242
:100510008093B0006093B40008953FB7F894809141
:10052000530190915401A0915501B091560126B507
:10053000A89B05C02F3F19F00196A11DB11D3FBF1B
:10054000BA2FA92F982F8827BC01CD01620F711DEA
:10055000811D911D42E0660F771F881F991F4A95E4
:10056000D1F708958F929F92AF92BF92CF92DF9270
:10057000EF92FF924B015C010E948D026B017C01A6
:100580000E948D026C197D098E099F09683E734097
:1005900081059105A8F321E0821A9108A108B1080C
:1005A00088EEC80E83E0D81EE11CF11C8114910472
:1005B000A104B10429F7FF90EF90DF90CF90BF9096
:1005C000AF909F908F90089561E085E00E94EB01CD
:1005D00061E08BE00E94EB0161E086E00E94EB01AC
:1005E00060E084E00E94EB0160E08AE00E94EB01A1
:1005F00061E087E00C94EB0161E085E00E94EB0193
:1006000061E08BE00E94EB0160E086E00E94EB017C
:1006100061E084E00E94EB0161E08AE00E94EB016E
:1006200060E087E00C94EB0160E085E00E94EB0164
:1006300060E08BE00C94EB01FC0101900020E9F7F5
:100640003197AF01481B590BBC018EE591E00C942A
:100650008C008F929F92AF92BF920F931F93CF9374
:10066000DF93CDB7DEB7A1970FB6F894DEBF0FBE0C
:10067000CDBF19A2423008F44AE08E010F5D1F4F32
:10068000842E912CB12CA12CA50194010E94260945
:10069000E62FB901CA01EA30F4F4E05DD801EE9327
:1006A0008D01232B242B252B79F790E080E01097E8
:1006B00019F0CD010E941C03A1960FB6F894DEBF7D
:1006C0000FBECDBFDF91CF911F910F91BF90AF9023
:1006D0009F908F900895E95CE1CF0E9414030E94DF
:1006E000FC026AE070E080E090E00E94B2020E94AA
:1006F000140361E08BE00E94190261E08BE00E942C
:10070000EB0161E085E00E94190261EF70E085E095
:100710000E944A0260E086E00E94EB0161E084E012
:100720000E94EB0160E08AE00E94EB0161E087E05B
:100730000E94EB0164EC71E080E090E00E94B20264
:100740000E94FC0268EC70E080E090E00C94B20241
:100750000E94E40262E370E080E090E00E94B20256
:1007600061E085E00E94EB0161E08BE00E941902EC
:1007700064EF70E08BE00E944A0260E086E00E9435
:10078000EB0161E084E00E94EB0160E08AE00E94FE
:10079000EB0161E087E00E94EB0163E871E080E03B
:1007A00090E00E94B2020E94E40264E670E080E001
:1007B00090E00C94B2021F920F920FB60F92112488
:1007C0002F933F934F935F936F937F938F939F9359
:1007D000AF93BF93EF93FF938EE591E00E940A01E0
:1007E000FF91EF91BF91AF919F918F917F916F9109
:1007F0005F914F913F912F910F900FBE0F901F90DF
:1008000018951F920F920FB60F9211242F938F936A
:100810009F93EF93FF93E0916E01F0916F018081C0
:10082000E0917401F091750182FD1BC0908180916F
:1008300077018F5F8F7320917801821741F0E091EB
:100840007701F0E0E25AFE4F958F80937701FF9198
:10085000EF919F918F912F910F900FBE0F901F904E
:1008600018958081F4CF1F920F920FB60F9211242A
:100870002F933F938F939F93AF93BF9380914F019B
:1008800090915001A0915101B091520130914E01CF
:1008900023E0230F2D3758F50196A11DB11D20939C
:1008A0004E0180934F0190935001A0935101B0935A
:1008B00052018091530190915401A0915501B09142
:1008C00056010196A11DB11D8093530190935401CF
:1008D000A0935501B0935601BF91AF919F918F9115
:1008E0003F912F910F900FBE0F901F90189526E803
:1008F000230F0296A11DB11DD2CFCF92DF92EF92AE
:10090000FF920F931F93E82FF92F05C00150110993
:100910002109310961F1908196239417B9F305C03B
:10092000015011092109310911F190819623941385
:10093000F7CFC12CD12CE12CF12C0AC08FEFC81AB3
:10094000D80AE80AF80A0C151D052E053F0579F0AE
:1009500080818623841791F36C2D7D2D8E2D9F2D04
:100960001F910F91FF90EF90DF90CF90089560E07E
:1009700070E080E090E01F910F91FF90EF90DF908A
:10098000CF900895789484B5826084BD84B58160E9
:1009900084BD85B5826085BD85B5816085BD80914A
:1009A0006E00816080936E001092810080918100C2
:1009B00082608093810080918100816080938100BA
:1009C000809180008160809380008091B10084607C
:1009D0008093B1008091B00081608093B0008091DD
:1009E0007A00846080937A0080917A00826080939C
:1009F0007A0080917A00816080937A0080917A00F9
:100A0000806880937A001092C100E0916E01F091AD
:100A10006F0182E08083E0916A01F0916B011082A6
:100A2000E0916C01F0916D018FEC80831092760162
:100A3000E0917201F091730186E08083E091700192
:100A4000F0917101808180618083E0917001F0916B
:100A50007101808188608083E0917001F091710163
:100A6000808180688083E0917001F09171018081C4
:100A70008F7D8083C2E1D1E004E211E0888122967B
:100A800061E00E9419020C171D07C1F7CEE060E07B
:100A90008C2F0E941902CF5FC431C9F760E083E058
:100AA0000E94190280E291E00E941C0385E291E01D
:100AB0000E941C0393E0892E912C2DE9222E20E028
:100AC000322E30E0A32E30E0B32E60E082E00E94B0
:100AD000EB01C4010197F1F761E082E00E94EB01B4
:100AE00083E290E00197F1F760E082E00E94EB0181
:100AF000E1EBF0E06491F1018491E82FF0E0EE0F7A
:100B0000FF1FE057FF4F8591949100E41FE120E023
:100B100030E0462F0E947D04611571058105910525
:100B200029F06F5F7F4F8F4F9F4F9F700E94FD078F
:100B300020E030E048E652E40E945C0760935701F1
:100B4000709358018093590190935A0188E291E083
:100B50000E941C0340905701509058016090590129
:100B600070905A01A3019201C301B2010E942109B0
:100B7000882309F461C08EE391E00E941C038AE49B
:100B800091E00E941C0385E291E00E941C034090CA
:100B90005701509058016090590170905A0120E01F
:100BA00030E040E251E4C301B2010E945707881FC0
:100BB0008827881F80935B0181E10E94C201EC01BC
:100BC00081E0209709F480E080935D0182E10E943A
:100BD000C2017C0181E0E114F10409F480E080931A
:100BE0005C0180E10E94C2018C0120E030E040E223
:100BF00051E4C301B2010E94570787FFB4C0EF2838
:100C000009F4B4C0012B09F0B3C0CD2B09F0A1C089
:100C10000E94FC026AE070E080E090E00E94B20274
:100C2000A114B10409F451CF0E94F600882309F4FD
:100C30004CCF0E94000049CF73016201E894F7F89D
:100C40002FEF3FEF4FE75FE7C701B6010E94210991
:100C500081110DC02FEF3FEF4FE75FE7C701B601EE
:100C60000E94570718161CF482E491E086CF2FEFFC
:100C70003FEF4FE75FE4C301B2010E94AF081816CF
:100C80001CF486E491E079CF2FEF3FEF4FE75FEC64
:100C9000C301B2010E94570787FDF3CF20E030E087
:100CA000A901C301B2010E94570787FF09C06DE285
:100CB0008EE591E00E942C0177FA709477F8709499
:100CC0002EE632E143E05AE3C301B2010E94EB0693
:100CD0002B013C010E94CE076B017C010E94FD07A5
:100CE0009B01AC01C301B2010E94EA062B013C0149
:100CF0004AE0C701B6010E9429036EE28EE591E049
:100D00000E942C01C4E0C15009F439CF20E030E04A
:100D100040E251E4C301B2010E94B4086B017C01BE
:100D20000E94CE072B01712C612C4AE0C301B20155
:100D30000E942903C301B2010E94FD079B01AC017F
:100D4000C701B6010E94EA062B013C01DCCFCD2B86
:100D500019F00E946D035ECF6AE070E080E090E0E1
:100D60000E94B20257CF0E94140354CF012B79F393
:100D7000CD2BC9F70E94A8034DCFEEE5F1E0138219
:100D8000128288EE93E0A0E0B0E084839583A6838E
:100D9000B78384E091E09183808385EC90E0958730
:100DA000848784EC90E09787868780EC90E0918B35
:100DB000808B81EC90E0938B828B82EC90E0958B22
:100DC000848B86EC90E0978B868B118E128E138E1F
:100DD000148E08955058BB27AA270E9402070C942E
:100DE00075080E94670838F00E946E0820F039F4F8
:100DF0009F3F19F426F40C9464080EF4E095E7FB89
:100E00000C945E08E92F0E94860858F3BA1762070F
:100E100073078407950720F079F4A6F50C94A808C9
:100E20000EF4E0950B2EBA2FA02D0B01B901900105
:100E30000C01CA01A0011124FF27591B99F0593F49
:100E400050F4503E68F11A16F040A22F232F342F91
:100E50004427585FF3CF469537952795A795F040DF
:100E60005395C9F77EF41F16BA0B620B730B840BF4
:100E7000BAF09150A1F0FF0FBB1F661F771F881FAC
:100E8000C2F70EC0BA0F621F731F841F48F4879504
:100E900077956795B795F7959E3F08F0B0CF9395F6
:100EA000880F08F09927EE0F9795879508950E946F
:100EB0003A0808F481E008950E9470070C947508C0
:100EC0000E946E0858F00E94670840F029F45F3FC6
:100ED00029F00C945E0851110C94A9080C94640834
:100EE0000E94860868F39923B1F3552391F3951B6B
:100EF000550BBB27AA2762177307840738F09F5F3B
:100F00005F4F220F331F441FAA1FA9F335D00E2EA7
:100F10003AF0E0E832D091505040E695001CCAF714
:100F20002BD0FE2F29D0660F771F881FBB1F2617D7
:100F300037074807AB07B0E809F0BB0B802DBF01AE
:100F4000FF2793585F4F3AF09E3F510578F00C947D
:100F50005E080C94A9085F3FE4F3983ED4F38695AD
:100F600077956795B795F7959F5FC9F7880F911D9E
:100F70009695879597F90895E1E0660F771F881F8A
:100F8000BB1F621773078407BA0720F0621B730B3D
:100F9000840BBA0BEE1F88F7E09508950E948E0827
:100FA00088F09F5798F0B92F9927B751B0F0E1F02A
:100FB000660F771F881F991F1AF0BA95C9F714C0DA
:100FC000B13091F00E94A808B1E008950C94A808EF
:100FD000672F782F8827B85F39F0B93FCCF3869513
:100FE00077956795B395D9F73EF490958095709570
:100FF00061957F4F8F4F9F4F0895E89409C097FBED
:101000003EF490958095709561957F4F8F4F9F4FDF
:101010009923A9F0F92F96E9BB279395F695879523
:1010200077956795B795F111F8CFFAF4BB0F11F4E6
:1010300060FF1BC06F5F7F4F8F4F9F4F16C088238D
:1010400011F096E911C0772321F09EE8872F762FC3
:1010500005C0662371F096E8862F70E060E02AF004
:101060009A95660F771F881FDAF7880F96958795F0
:1010700097F90895990F0008550FAA0BE0E8FEEFC5
:1010800016161706E807F907C0F012161306E4074C
:10109000F50798F0621B730B840B950B39F40A2645
:1010A00061F0232B242B252B21F408950A2609F423
:1010B000A140A6958FEF811D811D089597F99F6727
:1010C00080E870E060E008959FEF80EC08950024D0
:1010D0000A941616170618060906089500240A949D
:1010E00012161306140605060895092E0394000C23
:1010F00011F4882352F0BB0F40F4BF2B11F460FFB2
:1011000004C06F5F7F4F8F4F9F4F089557FD9058DA
:10111000440F551F59F05F3F71F04795880F97FBBB
:10112000991F61F09F3F79F0879508951216130675
:101130001406551FF2CF4695F1DF08C016161706A4
:101140001806991FF1CF86957105610508940895D9
:10115000E894BB2766277727CB0197F908950E946B
:101160003A0808F48FEF08950E94C7080C94750898
:101170000E94670838F00E946E0820F0952311F055
:101180000C945E080C94640811240C94A9080E9425
:10119000860870F3959FC1F3950F50E0551F629F2D
:1011A000F001729FBB27F00DB11D639FAA27F00DC0
:1011B000B11DAA1F649F6627B00DA11D661F829FE7
:1011C0002227B00DA11D621F739FB00DA11D621FCC
:1011D000839FA00D611D221F749F3327A00D611DE9
:1011E000231F849F600D211D822F762F6A2F1124CB
:1011F0009F5750409AF0F1F088234AF0EE0FFF1FFE
:10120000BB1F661F771F881F91505040A9F79E3F54
:10121000510580F00C945E080C94A9085F3FE4F33C
:10122000983ED4F3869577956795B795F795E795AA
:101230009F5FC1F7FE2B880F911D9695879597F9B3
:1012400008950E943A08880B990B0895A1E21A2E7E
:10125000AA1BBB1BFD010DC0AA1FBB1FEE1FFF1F5A
:10126000A217B307E407F50720F0A21BB30BE40BAA
:10127000F50B661F771F881F991F1A9469F76095F1
:101280007095809590959B01AC01BD01CF010895AB
:10129000EE0FFF1F0590F491E02D0994F894FFCF15
:1012A000000000002C018C00B9007901EA00C800A0
:1012B000DC000B000A000700060005000400020025
:1012C000486F6C61000D0A0044697374616E636954
:1012D00061206465746563746164613A20006E61C5
:0E12E0006E00696E66006F766600636D00003A
:107E0000112484B714BE81FFF0D085E080938100F7
:107E100082E08093C00088E18093C10086E0809377
:107E2000C20080E18093C4008EE0C9D0259A86E02C
:107E300020E33CEF91E0309385002093840096BBD3
:107E4000B09BFECF1D9AA8958150A9F7CC24DD24C4
:107E500088248394B5E0AB2EA1E19A2EF3E0BF2EE7
:107E6000A2D0813461F49FD0082FAFD0023811F036
:107E7000013811F484E001C083E08DD089C08234E0
:107E800011F484E103C0853419F485E0A6D080C0E4
:107E9000853579F488D0E82EFF2485D0082F10E0AE
:107EA000102F00270E291F29000F111F8ED06801E7
:107EB0006FC0863521F484E090D080E0DECF843638
:107EC00009F040C070D06FD0082F6DD080E0C81688
:107ED00080E7D80618F4F601B7BEE895C0E0D1E017
:107EE00062D089930C17E1F7F0E0CF16F0E7DF06D8
:107EF00018F0F601B7BEE89568D007B600FCFDCFD4
:107F0000A601A0E0B1E02C9130E011968C91119780
:107F100090E0982F8827822B932B1296FA010C0160
:107F200087BEE89511244E5F5F4FF1E0A038BF0790
:107F300051F7F601A7BEE89507B600FCFDCF97BE46
:107F4000E89526C08437B1F42ED02DD0F82E2BD052
:107F50003CD0F601EF2C8F010F5F1F4F84911BD097
:107F6000EA94F801C1F70894C11CD11CFA94CF0C13
:107F7000D11C0EC0853739F428D08EE10CD085E9AC
:107F80000AD08FE07ACF813511F488E018D01DD067
:107F900080E101D065CF982F8091C00085FFFCCF94
:107FA0009093C60008958091C00087FFFCCF809118
:107FB000C00084FD01C0A8958091C6000895E0E648
:107FC000F0E098E1908380830895EDDF803219F02E
:107FD00088E0F5DFFFCF84E1DECF1F93182FE3DFCA
:107FE0001150E9F7F2DF1F91089580E0E8DFEE27F6
:047FF000FF270994CA
:027FFE00040479
:00000001FF
